:100000000C942D000C94A2020C94A2020C94A20257
:100010000C94A2020C94A2020C94A2020C94A202D0
:100020000C94A2020C94A2020C94A2020C94A202C0
:100030000C94A2020C946D000C94A2020C94A202E7
:100040000C94A2020C94A2020C94A2020C94A202A0
:100050000C94A20200600075800011241FBECFE541
:10006000D8E0DEBFCDBFE4E5F0E040E017C0B591D9
:10007000A59135912591059107FD0CC0959185912C
:10008000EF01F92FE82F05900D92A217B307D9F7CA
:10009000FE0104C01D92A217B307E1F7E935F4078A
:0E00A00031F70E9498010C948302F894FFCF70
:1000AE005472616E736D6974203A200052656365F7
:0700BE00697665203A20007D
:1000C500202020202020202020202020202020202B
:0500D5002020202000A6
:1000DA001F920F920FB60F9211242F933F934F93B3
:1000EA005F936F937F938F939F93AF93BF93EF9396
:1000FA00FF93CF93DF93CDB7DEB76597DEBFCDBF52
:10010A000E949E028A3031F090917400933110F46B
:10011A008D3059F5E0917400F0E0E05AFF4F1082FB
:10012A001092740025EC30E040E085E1F901DE012F
:10013A001196742F0E946B0241E062E0CE01019693
:10014A000E945E0241E063E0CE0101960E945E02D7
:10015A0041E064E0CE0101960E945E0241E062E065
:10016A0080E690E00E945E020AC0E091740091E08D
:10017A009E0F90937400F0E0E05AFF4F80836596DB
:10018A000FB6F894DEBF0FBECDBFDF91CF91FF91BE
:10019A00EF91BF91AF919F918F917F916F915F91F5
:1001AA004F913F912F910F900FBE0F901F9018956E
:1001BA00813001F130F08230B1F1833009F44CC062
:1001CA000895413059F42AB381E090E002C0880FC3
:1001DA00991F6A95E2F7822B8ABB08952AB381E0B8
:1001EA0090E002C0880F991F6A95E2F780958223F2
:1001FA008ABB0895413059F427B381E090E002C0E8
:10020A00880F991F6A95E2F7822B87BB089527B357
:10021A0081E090E002C0880F991F6A95E2F7809505
:10022A00822387BB0895413059F424B381E090E0DA
:10023A0002C0880F991F6A95E2F7822B84BB089542
:10024A0024B381E090E002C0880F991F6A95E2F713
:10025A008095822384BB0895413059F421B381E00B
:10026A0090E002C0880F991F6A95E2F7822B81BB42
:10027A00089521B381E090E002C0880F991F6A9522
:0A028A00E2F78095822381BB0895FE
:1002940087B3816087BB87B3826087BB88B38E7F57
:1002A40088BB88B38D7F88BB8FE08ABB8BB3807F8C
:1002B4008BBB87E893E10197F1F700C0000082E06F
:1002C4000E94160281EE94E00197F1F700C000004D
:1002D40088E20E94160281EE94E00197F1F700C0D3
:1002E40000008CE00E94160289EF90E00197F1F77C
:1002F40000C0000081E00E94160283EF91E00197A4
:10030400F1F700C0000086E00E94160289EF90E039
:100314000197F1F700C0000080E80E94160289EFFF
:0C03240090E00197F1F700C00000089580
:10033000CF93DF93CDB7DEB767970FB6F894DEBFE4
:100340000FBECDBF0E94FB010E944A012EEA30E0A1
:1003500040E08CE0F901DE011196742F0E946B02DF
:100360002AEB30E040E08BE0F901DE011D96742FAE
:100370000E946B021AE501C01AE541E061E0CE017E
:1003800001960E945E0241E062E0CE010D960E945D
:100390005E020E949A024CE062E00E947802812F85
:1003A00090E00E9496024CE061E0812F0E9478026A
:0803B0001150113408F3E1CFF4
:1003B800823071F018F4813031F00895833069F09B
:1003C800843081F008958FE7860F0E941602089501
:1003D8008FEB860F0E941602089583E9860F0E940C
:0E03E8001602089583ED860F0E9416020895F6
:1003F60040E065E081E00E94DD0040E067E081E0EA
:100406000E94DD0040E064E081E00E94DD0041E002
:1004160066E081E00E94DD008DB18F7E8DB98DB1E1
:0604260080648DB9089509
:10042C00CF93C82F88B38E7F88BB8C2F82958F700B
:10043C000E948E020E943E028C2F8F700E948E02B0
:08044C000E943E02CF910895C9
:10045400CF93C82F88B3816088BB8C2F82958F700F
:100464000E948E020E943E028C2F8F700E948E0288
:080474000E943E02CF910895A1
:10047C0088B3826088BB81EE94E00197F1F700C0ED
:10048C00000088B38D7F88BB81EE94E00197F1F773
:06049C0000C000000895FD
:1004A200CF93DF93EC0103C021960E942A02888138
:0A04B2008111FACFDF91CF91089578
:1004BC00CF93DF93EC01862F642F0E94DC01CE01D9
:0A04CC000E945102DF91CF910895C4
:1004D600992777FD05C005900D920197E1F70895DC
:0A04E60001900D920197E1F70895CF
:1004F000CF93C82F862F642F0E94DC018C2F0E947F
:060500002A02CF910895CC
:10050600EC010E94A7020E94A602CE010E94A80248
:06051600CE010E94A402C8
:10051C009BB3907F9BBB9BB38F70982B9BBB089519
:08052C008FB9779BFECF089503
:08053400779BFECF8FB1089503
:08053C005F9BFECF8CB1089516
:040544000C94000013
:040548000E945500B8
:02054C00089510
:02054E0008950E
:0205500008950C
:00000001FF
