:100000000C942A000C946A000C946A000C946A0008
:100010000C946A000C946A000C946A000C946A00B8
:100020000C946A000C946A000C946A000C946A00A8
:100030000C946A000C946A000C946A000C946A0098
:100040000C946A000C946A000C946A000C946A0088
:100050000C946A0011241FBECFE5D8E0DEBFCDBFEF
:0C0060000E9436000C945A00F894FFCF68
:10006C008FEF8ABB0E944D00C0E0D0E00BC083E252
:10007C0094EF0197F1F700C000008C2F0E946500EF
:0E008C008BBB2196CF3FD10591F38CF3EDCFC6
:10009A0087B3806B87BB8DB180618DB98DB181606B
:0A00AA008DB98DB180648DB9089501
:1000B400EC010E946F000E946E00CE010E9470004D
:0600C400CE010E946C0059
:0A00CA008FB9779BFECF8FB1089528
:0400D4000C94000088
:0400D8000E9434004E
:0200DC00089585
:0200DE00089583
:0200E000089581
:00000001FF
