:100000000C942A000C9434000C9434000C943400AA
:100010000C9434000C9434000C9434000C94340090
:100020000C9434000C9434000C9434000C94340080
:100030000C9434000C9434000C9434000C94340070
:100040000C9434000C9434000C9434000C94340060
:100050000C94340011241FBECFE5D8E0DEBFCDBF25
:100060000E946D000C9444010C940000DF93CF9328
:1000700000D000D00F92CDB7DEB769837A838B832F
:100080009C831D8289819A81AB81BC810097A105E7
:10009000B10511F081E08D8389819A81AB81BC81AA
:1000A0000197A109B10989839A83AB83BC838D81B0
:1000B000882339F70F900F900F900F900F90CF91EA
:1000C000DF910895DF93CF93CDB7DEB7EAE3F0E099
:1000D0008FEF8083CF91DF910895DF93CF93CDB7DA
:1000E000DEB70E946200ABE3B0E0EBE3F0E08081BA
:1000F00081608C9360E177E280E090E00E943600BE
:10010000ABE3B0E0EBE3F0E0808182608C9360E1F0
:1001100077E280E090E00E943600ABE3B0E0EBE3F2
:10012000F0E0808184608C9360E177E280E090E091
:100130000E943600ABE3B0E0EBE3F0E08081886042
:100140008C9360E177E280E090E00E943600ABE3C0
:10015000B0E0EBE3F0E0808180618C9360E177E2D6
:1001600080E090E00E943600ABE3B0E0EBE3F0E02B
:10017000808180628C9360E177E280E090E00E9471
:100180003600ABE3B0E0EBE3F0E0808180648C9379
:1001900060E177E280E090E00E943600ABE3B0E0FF
:1001A000EBE3F0E0808180688C9360E177E280E0AF
:1001B00090E00E943600ABE3B0E0EBE3F0E080813A
:1001C0008F778C9360E177E280E090E00E943600C8
:1001D000ABE3B0E0EBE3F0E080818F7B8C9360E1F8
:1001E00077E280E090E00E943600ABE3B0E0EBE322
:1001F000F0E080818F7D8C9360E177E280E090E099
:100200000E943600ABE3B0E0EBE3F0E080818F7E4C
:100210008C9360E177E280E090E00E943600ABE3EF
:10022000B0E0EBE3F0E08081877F8C9360E177E2E0
:1002300080E090E00E943600ABE3B0E0EBE3F0E05A
:1002400080818B7F8C9360E177E280E090E00E9478
:100250003600ABE3B0E0EBE3F0E080818D7F8C9380
:1002600060E177E280E090E00E943600ABE3B0E02E
:10027000EBE3F0E080818E7F8C9360E177E280E0B9
:0C02800090E00E9436002FCFF894FFCFD2
:00000001FF
