:100000000C942A000C9447000C9447000C94470071
:100010000C9447000C9447000C9447000C94470044
:100020000C9447000C9447000C9447000C94470034
:100030000C9447000C9447000C9447000C94470024
:100040000C9447000C9447000C9447000C94470014
:100050000C94470011241FBECFE5D8E0DEBFCDBF12
:1000600010E0A0E6B0E0E4EBF1E002C005900D92F4
:10007000AA36B107D9F710E0AAE6B0E001C01D9298
:10008000AC36B107E1F70E9484000C94D8000C94C0
:100090000000DF93CF9300D000D00F92CDB7DEB732
:1000A00069837A838B839C831D8289819A81AB814A
:1000B000BC810097A105B10511F081E08D83898194
:1000C0009A81AB81BC810197A109B10989839A8387
:1000D000AB83BC838D81882339F70F900F900F90ED
:1000E0000F900F90CF91DF910895DF93CF93CDB70D
:1000F000DEB7EAE3F0E08FEF8083E4E3F0E08FEF38
:100100008083CF91DF910895DF93CF9300D0CDB757
:10011000DEB70E94750019821A82198244C0ABE3CF
:10012000B0E0EBE3F0E080818F708C93ABE3B0E064
:10013000EBE3F0E08081282F8981882F90E0FC019B
:10014000E05AFF4F8081882F90E082959295907FB2
:100150009827807F9827822B8C931A821EC0ABE34E
:10016000B0E0EBE3F0E08081807F8C93ABE3B0E024
:10017000EBE3F0E020818A81882F90E0FC01E05AD7
:10018000FF4F8081822B8C9368E873E180E090E0E0
:100190000E9449008A818F5F8A838A818A30F8F2BF
:1001A00089818F5F898389818A3008F4B8CFB3CF82
:0401B000F894FFCFF1
:0A01B4000001020304050607080914
:00000001FF
