:100000000C9433000C9479020C9479020C947902CC
:100010000C9479020C9479020C9479020C94790274
:100020000C9479020C9479020C9479020C94790264
:100030000C9479020C9436010C9479020C94790298
:100040000C9479020C9479020C9479020C94790244
:100050000C94790200600074800074007E0005003A
:10006000007E007F800011241FBECFE5D8E0DEBFF8
:10007000CDBFE4E5F0E040E017C0B591A591359122
:100080002591059107FD0CC095918591EF01F92F00
:10009000E82F05900D92A217B307D9F7FE0104C00F
:1000A0001D92A217B307E1F7E536F40731F70E9476
:0A00B00081010C945E02F894FFCF6A
:1000BA002020202020202020202020202020202036
:0700CA00202020202020006F
:0E00D10054657374696E6720554152540A00DD
:1000E000CF93DF93EC01F8948BB18D7F8BB988812E
:1000F0009981AA81BB81880F991FAA1FBB1F880FF6
:10010000991FAA1FBB1F9C01AD01220F331F441F63
:10011000551F220F331F441F551F60E072E18AE70D
:1001200090E00E94A5012150310929B930BD8F818D
:10013000811104C080B58F7B80BD03C080B5806411
:1001400080BD80B58F7C80BD20B59E81937030E1ED
:10015000939FC0011124822B80BD80B5877F80BD15
:1001600020B59D81892F90E0880F991F880F991FD6
:10017000880F991F822B80BD80B5897F80BD20B5F7
:100180009C819370892F90E0880F991F822B80BDEE
:100190008C81873021F48AB184608AB903C08AB126
:1001A0008B7F8AB98AB188608AB98AB180618AB93D
:1001B0008885813019F48AB180688AB9898581304F
:1001C00019F48AB180648AB97894DF91CF91089547
:1001D00087B3816087BB87B3826087BB88B38E7F1C
:1001E00088BB88B38D7F88BB8FE08ABB8BB3807F51
:1001F0008BBB87E893E10197F1F700C0000082E034
:100200000E94FC0181EE94E00197F1F700C000002C
:1002100088E20E94FC0181EE94E00197F1F700C0B2
:1002200000008CE00E94FC0189EF90E00197F1F75B
:1002300000C0000081E00E94FC0183EF91E0019783
:10024000F1F700C0000086E00E94FC0189EF90E019
:100250000197F1F700C0000080E80E94FC0189EFDF
:0C02600090E00197F1F700C00000089545
:10026C001F920F920FB60F9211242F933F934F931F
:10027C005F936F937F938F939F93AF93BF93EF9302
:10028C00FF930E9475028A3021F090917E00933189
:10029C00B8F0E0917E00F0E0E05AFF4F108210922F
:1002AC007E0041E062E08AEB90E0A0E090E00E94EA
:1002BC00440241E062E080E690E00E9444020AC001
:1002CC00E0917E0091E09E0F90937E00F0E0E05A6A
:1002DC00FF4F8083FF91EF91BF91AF919F918F91D1
:1002EC007F916F915F914F913F912F910F900FBE26
:0602FC000F901F90189501
:10030200CF93DF93CDB7DEB72E970FB6F894DEBF4B
:100312000FBECDBF0E94E80084E790E00E9470000B
:1003220021ED30E040E08EE0F9018E010F5F1F4FBA
:10033200D801742F0E945102C8010E943702B801ED
:0803420080E80E94E601FFCFF4
:10034A00A1E21A2EAA1BBB1BFD010DC0AA1FBB1FCF
:10035A00EE1FFF1FA217B307E407F50720F0A21B41
:10036A00B30BE40BF50B661F771F881F991F1A94AE
:10037A0069F760957095809590959B01AC01BD01D8
:04038A00CF01089502
:10038E00823071F018F4813031F00895833069F0C5
:10039E00843081F008958FE7860F0E94FC01089546
:1003AE008FEB860F0E94FC01089583E9860F0E9451
:0E03BE00FC01089583ED860F0E94FC01089556
:1003CC00CF92DF92EF926B01E82E06C09FEFC91A15
:1003DC00D90AE90A0E947102F6018491E7FC808136
:0C03EC008111F4CFEF90DF90CF900895C6
:1003F800CF93C82F88B38E7F88BB8C2F82958F7040
:100408000E9469020E9424028C2F8F700E94690248
:080418000E942402CF91089517
:10042000CF93C82F88B3816088BB8C2F82958F7043
:100430000E9469020E9424028C2F8F700E94690220
:080440000E942402CF910895EF
:1004480088B3826088BB81EE94E00197F1F700C021
:10045800000088B38D7F88BB81EE94E00197F1F7A7
:0604680000C00000089531
:10046E00CF93DF93EC0103C021960E941002888186
:0A047E008111FACFDF91CF910895AC
:10048800CF93DF93EC01862F642F0E94C701CE0122
:0A0498000E943702DF91CF91089512
:1004A200992777FD05C005900D920197E1F7089510
:0A04B20001900D920197E1F7089503
:1004BC00EC010E947E020E947D02CE010E947F020E
:0604CC00CE010E947B023C
:1004D2009BB3907F9BBB9BB38F70982B9BBB089564
:0804E2005D9BFECF8CB908956B
:0804EA005F9BFECF8CB1089569
:0404F2000C94000066
:0404F6000E945B0005
:0204FA00089563
:0204FC00089561
:0204FE0008955F
:0A0500008025000003000000010048
:00000001FF
