:100000000C942A000C94C0000C94C0000C94C00006
:100010000C94C0000C94C0000C94C0000C94C00060
:100020000C94C0000C94C0000C94C0000C94C00050
:100030000C94C0000C94C0000C94C0000C94C00040
:100040000C94C0000C94C0000C94C0000C94C00030
:100050000C94C00011241FBECFE5D8E0DEBFCDBF99
:0C0060000E9436000C94A800F894FFCF1A
:10006C000E94B3000E94880061E081E00E94BD0004
:10007C0062E082E00E94BD0063E083E00E94BD006C
:10008C0064E084E00E94BD0065E085E00E94BD0054
:10009C0066E086E00E94BD0067E087E00E94BD003C
:1000AC0068E088E00E94BD002FE38DE093E02150D2
:1000BC0080409040E1F700C000000E946600D4CF61
:1000CC00CF93C0E01BC0CF5F6FE78C2F0E949900CD
:1000DC002FE986E891E0215080409040E1F700C084
:1000EC00000060E08C2F0E9499002FE986E891E0D7
:1000FC00215080409040E1F700C00000C83018F358
:04010C00CF910895F2
:100110006FEF89E00E9499006FEF8AE00E949900DA
:1001200067EF8BE00E94990061E08CE00E949900EB
:02013000089530
:10013200CF93C62F98B39F7E98BB0E94B9008C2F95
:0E0142000E94B90088B3806188BBCF910895F8
:10015000EC010E94C5000E94C400CE010E94C600AE
:06016000CE010E94C20066
:0C01660087B3806B87BB81E58DB90895DD
:080172008FB9779BFECF0895C1
:06017A000E9499000895A7
:040180000C940000DB
:040184000E943400A1
:020188000895D8
:02018A000895D6
:02018C000895D4
:00000001FF
