:100000000C942A000C9465000C9465000C94650017
:100010000C9465000C9465000C9465000C946500CC
:100020000C9465000C9465000C9465000C946500BC
:100030000C9465000C9465000C9465000C946500AC
:100040000C9465000C9465000C9465000C9465009C
:100050000C94650011241FBECFE5D8E0DEBFCDBFF4
:0C0060000E9436000C944B00F894FFCF77
:10006C008FEF8ABB0E945600CFEFD0E00BC083E22B
:10007C0094EF0197F1F700C000008C2F0E946000F4
:0A008C008BBB2197DD239CF7EFCF1B
:10009600EC010E946A000E946900CE010E946B007A
:0600A600CE010E9467007C
:1000AC0087B3806487BB87B38F7487BB8DB1806443
:0400BC008DB908955D
:0A00C0008FB9779BFECF8FB1089532
:0400CA000C94000092
:0400CE000E94340058
:0200D20008958F
:0200D40008958D
:0200D60008958B
:00000001FF
