:100000000C942D000C9493020C9493020C94930284
:100010000C9493020C9493020C9493020C9493020C
:100020000C9493020C9493020C9493020C949302FC
:100030000C9493020C94F8000C9493020C94930289
:100040000C9493020C9493020C9493020C949302DC
:100050000C94930200600075800011241FBECFE550
:10006000D8E0DEBFCDBFE4E5F0E040E017C0B591D9
:10007000A59135912591059107FD0CC0959185912C
:10008000EF01F92FE82F05900D92A217B307D9F7CA
:10009000FE0104C01D92A217B307E1F7E935F4078A
:0E00A00031F70E94D5010C947C02F894FFCF3A
:1000AE002020202020202020202020202020202042
:0500BE002020202000BD
:1000C400CF93DF93EC0183B7887F83BF93B78F818E
:1000D400892B83BF8B8181111BC083B78F7B83BF27
:1000E40083B7877F83BF8C81882319F087B38860A7
:1000F40087BB83B78F7C83BF23B79C8130E1939FF9
:10010400C0011124822B83BF89810E94950259C0AA
:100114008130D9F483B7806483BF83B7877F83BF7B
:1001240087B3886087BB83B78F7C83BF23B79E81E7
:1001340030E1939FC0011124822B83BF89810E94E7
:1001440095028A810E949B023CC08230F1F483B7FD
:100154008F7B83BF83B7886083BF8C81882319F02A
:1001640087B3886087BB83B78F7C83BF23B79C81A9
:1001740030E1939FC0011124822B83BF89810E94A7
:10018400950288810E9499021CC0833061F583B76F
:10019400806483BF83B7886083BF87B3886087BB6D
:1001A40083B78F7C83BF23B79D8130E1939FC001C8
:1001B4001124822B83BF89810E9495028A810E9427
:1001C4009B029885913019F08985813061F429B7B3
:1001D400892F90E0880F991F822B89BF99B7898551
:0C01E400892B89BF7894DF91CF9108959A
:1001F0001F920F920FB60F9211242F933F934F939C
:100200005F936F937F938F939F93AF93BF93EF937E
:10021000FF93CF93DF93CDB7DEB76597DEBFCDBF3A
:100220000E948F028A3031F090917400933110F463
:100230008D3059F5E0917400F0E0E05AFF4F1082E4
:10024000109274002EEA30E040E085E1F901DE0111
:100250001196742F0E946F0241E062E0CE01019678
:100260000E94620241E063E0CE0101960E946202B8
:1002700041E064E0CE0101960E94620241E062E04A
:1002800080E690E00E9462020AC0E091740091E072
:100290009E0F90937400F0E0E05AFF4F80836596C4
:1002A0000FB6F894DEBF0FBECDBFDF91CF91FF91A7
:1002B000EF91BF91AF919F918F917F916F915F91DE
:1002C0004F913F912F910F900FBE0F901F90189557
:1002D000813001F130F08230B1F1833009F44CC04B
:1002E0000895413059F42AB381E090E002C0880FAC
:1002F000991F6A95E2F7822B8ABB08952AB381E0A1
:1003000090E002C0880F991F6A95E2F780958223DA
:100310008ABB0895413059F427B381E090E002C0D0
:10032000880F991F6A95E2F7822B87BB089527B340
:1003300081E090E002C0880F991F6A95E2F78095EE
:10034000822387BB0895413059F424B381E090E0C3
:1003500002C0880F991F6A95E2F7822B84BB08952B
:1003600024B381E090E002C0880F991F6A95E2F7FC
:100370008095822384BB0895413059F421B381E0F4
:1003800090E002C0880F991F6A95E2F7822B81BB2B
:10039000089521B381E090E002C0880F991F6A950B
:0A03A000E2F78095822381BB0895E7
:1003AA00CF93DF93CDB7DEB72A970FB6F894DEBFA7
:1003BA000FBECDBFCE0101962AE0FC0111922A950B
:1003CA00E9F724E0298322E02C8321E02D8326E02B
:1003DA0028870E94620040E060E081E00E94680194
:0C03EA008FEF8ABB0E9497028BBBFCCFF8
:1003F600823071F018F4813031F00895833069F05D
:10040600843081F008958FE7860F0E941A020895BE
:100416008FEB860F0E941A02089583E9860F0E94C9
:0E0426001A02089583ED860F0E941A020895AF
:10043400CF93C82F88B38E7F88BB8C2F82958F7003
:100444000E9487020E9442028C2F8F700E948702B2
:080454000E944202CF910895BD
:10045C00CF93C82F88B3816088BB8C2F82958F7007
:10046C000E9487020E9442028C2F8F700E9487028A
:08047C000E944202CF91089595
:1004840088B3826088BB81EE94E00197F1F700C0E5
:10049400000088B38D7F88BB81EE94E00197F1F76B
:0604A40000C000000895F5
:1004AA00CF93DF93EC0103C021960E942E0288812C
:0A04BA008111FACFDF91CF91089570
:1004C400CF93DF93EC01862F642F0E94FB01CE01B2
:0A04D4000E945502DF91CF910895B8
:1004DE00992777FD05C005900D920197E1F70895D4
:0A04EE0001900D920197E1F70895C7
:1004F800EC010E94A0020E949F02CE010E94A1026C
:06050800CE010E949D02DD
:10050E009BB3907F9BBB9BB38F70982B9BBB089527
:08051E005F9BFECF8CB1089534
:040526000C94000031
:04052A0082BF0895EF
:04052E0082B70895F3
:040532008CBF0895DD
:040536008CBF0895D9
:04053A000E945500C6
:02053E0008951E
:0205400008951C
:0205420008951A
:00000001FF
