:100000000C9433000C94C5020C94C5020C94C502E8
:100010000C94C5020C94C5020C94C5020C94C50244
:100020000C94C5020C94C5020C94C5020C94C50234
:100030000C94C5020C94EA000C94C5020C94C50201
:100040000C94C5020C94C5020C94C5020C94C50214
:100050000C94C50200600074800074007E00059856
:10006000007E007F800011241FBECFE5D8E0DEBFF8
:10007000CDBFE4E5F0E040E017C0B591A591359122
:100080002591059107FD0CC095918591EF01F92F00
:10009000E82F05900D92A217B307D9F7FE0104C00F
:1000A0001D92A217B307E1F7E536F40731F70E9476
:0A00B000A8010C94AE02F894FFCFF3
:1000BA002020202020202020202020202020202036
:0500CA002020202000B1
:1000CF002020202020202020202020202020202021
:0500DF0020202020009C
:1000E400CF93DF93EC01F8948BB18D7F8BB988812A
:1000F4009981AA81BB81880F991FAA1FBB1F880FF2
:10010400991FAA1FBB1F9C01AD01220F331F441F5F
:10011400551F220F331F441F551F60E072E18AE709
:1001240090E00E940B022150310929B930BD8F8122
:10013400811104C080B58F7B80BD03C080B580640D
:1001440080BD80B58F7C80BD20B59E81937030E1E9
:10015400939FC0011124822B80BD80B5877F80BD11
:1001640020B59D81892F90E0880F991F880F991FD2
:10017400880F991F822B80BD80B5897F80BD20B5F3
:100184009C819370892F90E0880F991F822B80BDEA
:100194008C81873021F48AB184608AB903C08AB122
:1001A4008B7F8AB98AB188608AB98AB180618AB939
:1001B4008885813019F48AB180688AB9898581304B
:1001C40019F48AB180648AB97894DF91CF91089543
:1001D4001F920F920FB60F9211242F933F934F93B8
:1001E4005F936F937F938F939F93AF93BF93EF939B
:1001F400FF93CF93DF93CDB7DEB76597DEBFCDBF57
:100204000E94C1028A3031F090917E00933110F443
:100214008D3059F5E0917E00F0E0E05AFF4F1082F6
:1002240010927E002FEC30E040E085E1F901DE0120
:100234001196742F0E94A10241E062E0CE01019662
:100244000E94940241E063E0CE0101960E94940270
:1002540041E064E0CE0101960E94940241E062E034
:1002640080E690E00E9494020AC0E0917E0091E052
:100274009E0F90937E00F0E0E05AFF4F80836596D6
:100284000FB6F894DEBF0FBECDBFDF91CF91FF91C3
:10029400EF91BF91AF919F918F917F916F915F91FA
:1002A4004F913F912F910F900FBE0F901F90189573
:1002B40087B3816087BB87B3826087BB88B38E7F37
:1002C40088BB88B38D7F88BB8FE08ABB8BB3807F6C
:1002D4008BBB87E893E10197F1F700C0000082E04F
:1002E4000E944C0281EE94E00197F1F700C00000F7
:1002F40088E20E944C0281EE94E00197F1F700C07D
:1003040000008CE00E944C0289EF90E00197F1F725
:1003140000C0000081E00E944C0283EF91E001974D
:10032400F1F700C0000086E00E944C0289EF90E0E3
:100334000197F1F700C0000080E80E944C0289EFA9
:0C03440090E00197F1F700C00000089560
:10035000CF93DF93CDB7DEB7A9970FB6F894DEBF82
:100360000FBECDBF0E945A0184E790E00E94720048
:1003700064E170E0CE0101960E94E1012AEB30E0D9
:1003800040E085E1F901DE015596742F0E94A1023B
:1003900041E062E0CE0145960E94940241E063E0B4
:1003A000CE0145960E94940241E064E0CE0145965C
:1003B0000E94940241E062E0CE0101960E94940204
:0203C000D7CF95
:1003C200EF92FF920F931F93CF93DF938C017B01E8
:1003D200C0E0D0E00E94C1028A3011F08D3021F4D9
:1003E200C00FD11F18820FC0970121503109C217C7
:1003F200D30730F4F801EC0FFD1F80832196EACF7A
:10040200C00FD11F1882DF91CF911F910F91FF90E2
:04041200EF900895CA
:10041600A1E21A2EAA1BBB1BFD010DC0AA1FBB1F02
:10042600EE1FFF1FA217B307E407F50720F0A21B74
:10043600B30BE40BF50B661F771F881F991F1A94E1
:1004460069F760957095809590959B01AC01BD010B
:04045600CF01089535
:10045A00823071F018F4813031F00895833069F0F8
:10046A00843081F008958FE7860F0E944C02089528
:10047A008FEB860F0E944C02089583E9860F0E9433
:0E048A004C02089583ED860F0E944C020895E7
:10049800CF93C82F88B38E7F88BB8C2F82958F709F
:1004A8000E94B9020E9474028C2F8F700E94B902B8
:0804B8000E947402CF91089527
:1004C000CF93C82F88B3816088BB8C2F82958F70A3
:1004D0000E94B9020E9474028C2F8F700E94B90290
:0804E0000E947402CF910895FF
:1004E80088B3826088BB81EE94E00197F1F700C081
:1004F800000088B38D7F88BB81EE94E00197F1F707
:0605080000C00000089590
:10050E00CF93DF93EC0103C021960E946002888195
:0A051E008111FACFDF91CF9108950B
:10052800CF93DF93EC01862F642F0E942D02CE011A
:0A0538000E948702DF91CF91089521
:10054200992777FD05C005900D920197E1F708956F
:0A05520001900D920197E1F7089562
:10055C00EC010E94CA020E94C902CE010E94CB0289
:06056C00CE010E94C7024F
:100572009BB3907F9BBB9BB38F70982B9BBB0895C3
:080582005F9BFECF8CB10895D0
:04058A000C940000CD
:04058E000E945B006C
:020592000895CA
:020594000895C8
:020596000895C6
:0A05980080250000030000000000B1
:00000001FF
