:100000000C942A000C945F000C947E000C949D00CC
:100010000C9434000C9434000C9434000C94340090
:100020000C9434000C9434000C9434000C94340080
:100030000C9434000C9434000C9434000C94340070
:100040000C9434000C9434000C9434000C94340060
:100050000C94340011241FBECFE5D8E0DEBFCDBF25
:100060000E945A000C94BC000C94000087B38B7F54
:1000700087BB81B38D7F81BB81B38B7F81BB81B314
:10008000806181BB81B3806281BB81B3806481BBAD
:1000900082B38F7882BB089578948BB7806E8BBFC4
:1000A00085B7836085BF85B7846085BF84B78F7B44
:1000B00084BF08950E9436000E944C00FFCF1F921B
:1000C0000F920FB60F9211242F938F939F9382B3A9
:1000D000806182BB2FE38DE093E02150804090400F
:1000E000E1F700C0000082B38F7E82BB9F918F91A9
:1000F0002F910F900FBE0F901F9018951F920F9287
:100100000FB60F9211242F938F939F9382B3806227
:1001100082BB2FE38DE093E0215080409040E1F7D7
:1001200000C0000082B38F7D82BB9F918F912F9181
:100130000F900FBE0F901F9018951F920F920FB641
:100140000F9211242F938F939F9382B3806482BB6D
:100150002FE38DE093E0215080409040E1F700C014
:10016000000082B38F7B82BB9F918F912F910F9064
:0C0170000FBE0F901F901895F894FFCF61
:00000001FF
