:100000000C942D000C94C30E0C94C30E0C94C30ED0
:100010000C94C30E0C94C30E0C94C30E0C94C30E1C
:100020000C94C30E0C94C30E0C94C30E0C94C30E0C
:100030000C94C30E0C94C8070C94C30E0C94C30EFE
:100040000C94C30E0C94C30E0C94C30E0C94C30EEC
:100050000C94C30E00600077800011241FBECFE512
:10006000D8E0DEBFCDBFE4E5F0E040E017C0B591D9
:10007000A59135912591059107FD0CC0959185912C
:10008000EF01F92FE82F05900D92A217B307D9F7CA
:10009000FE0104C01D92A217B307E1F7E935F4078A
:0E00A00031F70E94A5060C94580EF894FFCF7D
:1000AE00252E3266004469676974616C203A20001F
:1000BE00566F6C74616765203A200020506572633C
:0A00CE00656E74616765203A20003A
:1000D80068076C094C836A9074A07AC000806888AD
:0600E80000846C8200811F
:1000EE002020202020202020202020202020202002
:0500FE0020202020007D
:10010300494E4600696E66004E414E006E616E00B8
:06011300286E696C290052
:10011A00A6E2B0E0E3E9F0E00C94130D98A38F8F08
:10012A007F8B6E8B288FFB010190F081E02DFA877F
:10013A00E987FB0102811381248135813B8B2A8B5C
:10014A00808591859AA389A30680F781E02DFA8399
:10015A00E983FA0180809180A280B38020E030E0B8
:10016A00A901C501B4010E94AA0E87FF06C0B7FA09
:10017A00B094B7F8B0948DE204C0F985F2FF69C370
:10018A008BE2E981FA8180832A893B8921503109EE
:10019A003C832B8341E050E0598B488B06C08A8907
:1001AA009B899C838B83198A188AD501C401BF77DE
:1001BA000097E0E8AE07EFE7BE07F1F4F88D2F2FBE
:1001CA00FF0F330B2154310989819A814889598952
:1001DA00840F951F2A31310520F443E051E060E095
:1001EA0003C047E051E060E00E94FF0D89819A81D7
:1001FA003C01E0E88E2E1AC30197A048BF47F0F0F1
:10020A00488D242F440F330B2154310989819A8157
:10021A00E889F9898E0F9F1F2A31310520F44BE0B6
:10022A0051E060E003C04FE051E060E00E94FF0D42
:10023A0029813A81390140E8842EF8C220E030E071
:10024A00A901C501B4010E94AA0EC12CD12C20E833
:10025A00E22E2FE3F22E212C312C882309F487C0B9
:10026A008D829E82AF82B88620E030E040E251E47F
:10027A00C701B6010E94BC0E2B013C01D501C40185
:10028A0084199509A609B709B7FF07C0B095A095C3
:10029A00909581959F4FAF4FBF4F0297A105B1052A
:1002AA0034F45FEF251A350A73016201DDCFA50127
:1002BA009401C301B2010E94AA0E87FDF2CF8D817B
:1002CA009E81AF81B8858C199D09AE09BF09019637
:1002DA00A11DB11D0397A105B10508F446C01E82F0
:1002EA001D82A5019401C701B6010E94AF0E18161E
:1002FA00F4F584ED28168EEF3806E4F4ED81FE81DC
:10030A00EF2BC1F420E030E040E85AE5C501B40122
:10031A000E94BC0E4B015C0120E030E040E85AE547
:10032A00C701B6010E94BC0E6B017C0121E030E0DE
:10033A003E832D8320E030E040E251E4C701B6015C
:10034A000E94B80E6B017C0131E0231A3108D501F5
:10035A00C4018C199D09AE09BF090196A11DB11DE1
:10036A000397A105B10508F0BCCF46015701488D96
:10037A00042E000C550B598F488FCA010E94740E27
:10038A008A8F17FD03C01E830D8304C086E090E0A8
:10039A009E838D839A8D973639F4012B41F4E1E0DF
:1003AA00F0E0FE83ED8303C04A8D4F8710C02CEF27
:1003BA0022162FEF32060CF451C22D813E812216ED
:1003CA0033060CF04BC237FE4CC256E65F878D816E
:1003DA009E8101969E838D839F85963699F437FE7A
:1003EA0008C0C12CD12C90E8E92E9FE3F92E212CCC
:1003FA00312CEA8DE73631F02D813E81220D331DF5
:10040A003E832D831C2DDDA2EBA20F2D8B869C86AD
:10041A00AD86BE861D8A1C8A8C899D89ED81FE81E6
:10042A008E179F07DCF5212F3DA14BA1502F6B851D
:10043A007C858D859E850E94B80E0E9455072B01EA
:10044A003C010E94980E6B8FA3019201612F7DA13E
:10045A008BA1902F0E94BC0E2B853C854D855E8515
:10046A000E94910E9B01AC0150582B873C874D8707
:10047A005E8720E030E040E251E4612F7DA18BA14C
:10048A00902F0E94B80E162F7DA38BA3092F4C899B
:10049A005D894F5F5F4F5D8B4C8BBECF20E030E0B4
:1004AA0040EA50E4612F7DA18BA1902F0E94BC0EDF
:1004BA002B013C019B01AC016B857C858D859E855A
:1004CA000E94AA0E87FD0DC0A30192016B857C854F
:1004DA008D859E850E94AA0E811106C0FB8DF0FDB6
:1004EA0003C0412C512C3201A5019401C301B20170
:1004FA000E94920E4B015C0120E030E040E251E4A0
:10050A00C701B6010E94BC0E6B877C8B182F092F7E
:10051A009B01482F592FC501B4010E94AF0E87FDD8
:10052A0011C02FEF221A320A3F85363679F44D81EF
:10053A005E814F5F5F4F5E834D835B855DA38C89D0
:10054A008EA30BC0CB86DC8A1E2D0F2D9F85953678
:10055A0031F0EB85EDA3FC89FEA3710106C02B8562
:10056A002DA33C893EA3E12CF12C48885988C12C43
:10057A00D12C1D8A1C8A1C861B8649855A85407186
:10058A0055275CA34BA32B853C854D815E8124179F
:10059A00350734F08C899D89892B09F497C0A3C04B
:1005AA003201EE89FF89808591850597481659069B
:1005BA0088F72DA13EA1412F502FC501B4010E94F9
:1005CA00B80E0E9455076B8F7C8F8D8F9E8F0E946D
:1005DA00980E6A30710514F069E070E08BA19CA155
:1005EA00892B69F46115710551F49A8D973639F49E
:1005FA00F7FE05C03601EFEF6E1A7E0A3BC02C8962
:10060A003D89232BA1F4F7FE12C03FEF431A530A88
:10061A00E981FA81E60DF71D4EE240838B819C81C8
:10062A0001979C838B83E1E0F0E0FD8BEC8BE98101
:10063A00FA81E40DF51D36016114710431F020E3ED
:10064A00219331E0631A7108F7CFC601840D951D15
:10065A002B813C812C193D092C014FEF441A540A75
:10066A00E981FA81E80FF91F605D6083C90101978A
:10067A009C838B832B8D3C8D4D8D5E8D6DA17EA1D0
:10068A00812F902F0E94BC0EA50194010E94910E09
:10069A004B015C01B7FAB094B7F8B09420E030E0AF
:1006AA0040E251E46DA17EA1812F902F0E94B80EE5
:1006BA006DA37EA3182F092F91E0E91AF108EB85A3
:1006CA00FC853196FC87EB8763015DCFF985F4FFE2
:1006DA000AC0E981FA81E40DF51D8EE28083920158
:1006EA002F5F3F4F290149815A81440D551D5E8371
:1006FA004D83FA011082FF85F53609F061C0E98160
:10070A00FA8129A13AA1E20FF31F3197108237FE2D
:10071A0006C031942194310801E010E002C000E0E3
:10072A0010E0E9A1FAA1319749815A81E40FF51F36
:10073A0022E030E08AE0E82EF12CCF0149815A818B
:10074A00841B950B2114310479F0C101B7010E9471
:10075A00A00D805D82931B01215031098B819C8100
:10076A0001979C838B83E9CF1216130674F3FC015D
:10077A003197E40FF51F012B11F42BE201C02DE292
:10078A0020830297E981FA81E80FF91F288D398DB4
:10079A00215431092A31310510F025E601C025E43A
:1007AA0020832B813C81225031093C832B834816BC
:1007BA00590634F4AF0160E88D819E810E94FF0DD5
:1007CA0049815A813A0180E8882E998591FF2EC085
:1007DA0090FD2CC0EB81FC811E161F063CF5882D6E
:1007EA00B3010E94620D29813A81820F931F9C01F5
:1007FA0049815A81241B350BE889F9892E173F074D
:10080A004CF0FC012081EB81FC81E80FF91F208369
:10081A000197EDCF4B815C8160E370E089819A8119
:10082A008E0F9F1F0E94630E1B8A1A8A882DB3019E
:10083A000E94620DE984FA840A891B899C01682D49
:10084A00A3018F8D98A10E941D0BA696E2E10C943C
:10085A002F0D598553FFA3CC80E293CC35E63F8711
:08086A00D1CD46E64F87CECD4B
:100872002F923F924F926F927F928F929F92AF925E
:10088200BF92CF92DF92EF92FF920F931F93CF937B
:10089200DF93CDB7DEB72E970FB6F894DEBF0FBE4B
:1008A200CDBF4C016B0138011A8219828FEF9FEF85
:1008B2009C838B831E821D8258874F833A872987A8
:1008C200A12CB12CD6012D913D914C912A0D3B1DAD
:1008D200411DB7FC4A95F901849147FD8081811140
:1008E20016C0F601208331834283F901849147FDCA
:1008F2008081853209F00FC21901442EFFEF2F1AB1
:100902003F0A4F0AD6012D923D924C921BC085326E
:1009120041F3B401082E000C990B0E94D10A4FEF4B
:10092200A41AB40ACFCF2C32DCF02D3229F529815A
:100932003A8121603A8329830196A11DF6018083C1
:100942009183A283F60180819181A281FC0124918D
:10095200A7FD20812B3239F729813A812460EACF21
:10096200203221F429813A812860E4CF233251F4E4
:1009720029813A812061DECF203321F429813A8115
:100982002260D8CFB701C6010E94EF0B9E838D83F0
:1009920097FF0BC029813A81F1E02F273A832983FF
:1009A2009195819591099E838D8389819A8180FF9A
:1009B20003C08D7F9A838983F60180819181A28110
:1009C200FC012491A7FD20812E3261F40196A11D24
:1009D200F60180839183A283B701C6010E94EF0BC7
:1009E2009C838B83C6010E94340A182FD6012C9156
:1009F20011968C91119712969C91E22FF82F849167
:100A020097FD8081082E000C990B0E94740E893686
:100A120009F44AC084F4833609F419C134F48532E6
:100A220009F445C18136E1F050C18436E9F18836D6
:100A32000CF4E9C04AC1803709F4B0C03CF48E36E8
:100A420009F4D6C08F3609F46DC03FC1853709F469
:100A52004AC0883709F485C0833709F036C10DC111
:100A6200612F70E0A701CE010B960E94D40C892B56
:100A720009F448C1F60180819181A2819C014A2F2B
:100A82002F5F3F4F4F4F208331834283FC012491DC
:100A9200A7FD2081AE01455F5F4FBE016F5F7F4FB3
:100AA200C4010E9400002BC1612F70E0970141E058
:100AB20050E0CE010B960E940000892B09F422C15E
:100AC200F60180819181A2810196A11D808391838B
:100AD200A283AE01455F5F4FBE016F5F7F4FC401CE
:100AE2000E9400000CC1612F70E0970140E050E0CD
:100AF200CE010B960E940000892B09F403C1F60176
:100B020080819181A2810196A11D80839183A2831C
:100B1200AE01455F5F4FBE016F5F7F4FC4010E9410
:100B22000000EDC0612F70E0970140E050E0CE017F
:100B32000B960E940000892B09F4E4C0F601808123
:100B42009181A2810196A11D80839183A283AE012E
:100B5200455F5F4FBE016F5F7F4FC4010E9400007F
:100B6200CEC0612F70E0970140E050E0CE010B96BD
:100B72000E940000892B09F4C5C0F6018081918191
:100B8200A2819C014A2F2F5F3F4F4F4F2083318319
:100B92004283FC012491A7FD208120C0970140E0FF
:100BA20050E060EF70E0CE010B960E940000892BAE
:100BB20009F4A8C0F60180819181A2810196A11D4C
:100BC20080839183A2838B859C85892B31F400E0FD
:100BD20010E023E131E040E08CC028E7AE01455F40
:100BE2005F4FBE016F5F7F4FC4010E94000087C04C
:100BF200A501460D571D612F70E09701CE010B969E
:100C02000E9400007FC0612F70E0A701CE010B9609
:100C12000E94D40C892B09F475C0F6018081918160
:100C2200A2819C014A2F2F5F3F4F4F4F2083318378
:100C32004283FC012491A7FD2081AE01455F5F4FF5
:100C4200BE016F5F7F4FC4010E948D0058C01038F3
:100C520009F058C0F60180819181A2810196A11DFF
:100C620080839183A283D701ED91FC911197CF01EB
:100C720002968D939C93808126C0103809F042C061
:100C8200F60180819181A2810196A11D80839183C9
:100C9200A283D701ED91FC911197CF0103968D9319
:100CA2009C9320813181428100E010E022C0103803
:100CB20049F5F6012081318142812F5F3F4F4F4F2D
:100CC2002083318342838B870EC085E28B87F601B6
:100CD2002082318242821A8219821E821D828FEF05
:100CE2009FEF9C838B839E01255F3F4F40E801E08D
:100CF20010E0BE016F5F7F4FC4010E9400008A0DA9
:100D02009B1D0AC0F60180819181A2810196A11DDD
:100D120080839183A283C5012E960FB6F894DEBF1D
:100D22000FBECDBFDF91CF911F910F91FF90EF903A
:100D3200DF90CF90BF90AF909F908F907F906F90F9
:080D42004F903F902F9008959F
:100D4A00CF93DF93CDB7DEB7E7970FB6F894DEBF40
:100D5A000FBECDBF0E94830A0E94A50E23EB30E08E
:100D6A0040E08BE0F901DE015B96742F0E94340E9D
:100D7A0041E062E0CE014B960E941A0E2EEB30E063
:100D8A0040E08BE0F901DE015096742F0E94340E88
:100D9A0041E063E0CE0140960E941A0E29EC30E051
:100DAA0040E08FE0F901DE011196742F0E94340EA3
:100DBA0041E064E0CE0101960E941A0E80E00E9492
:100DCA00270E6C014AE050E0BE016D5C7F4F0E9425
:100DDA00A7084AE062E0CE01C3960E941A0EB60145
:100DEA0080E090E00E94B20B4B015C0120E030EC05
:100DFA004FE754E40E94B80E20E030E040EA50E4A5
:100E0A000E94BC0E9F938F937F936F930F2EFEEADF
:100E1A00CF2EF0E0DF2EF0E0EF2EF02DEF92DF92F2
:100E2A00CF928E01035D1F4F1F930F930E94DB0D1C
:100E3A004AE063E0C8010E941A0E20E030E048EC64
:100E4A0052E4C501B4010E94BC0E20E030EC4FE729
:100E5A0054E40E94B80E9F938F937F936F93EF92FF
:100E6A00DF92CF926E0186E2C80ED11CDF92CF923A
:100E7A000E94DB0D4EE064E0C6010E941A0E43E1B7
:100E8A0064E085E20E944D0E87EA91E60197F1F748
:100E9A0000C000000FB6F894DEBF0FBECDBF5ECF14
:100EAA008F929F92AF92BF92CF92DF92EF92FF9270
:100EBA000F931F938B019C0157E136952795179540
:100ECA0007955A95D1F71127A8014F57510947316C
:100EDA0051050CF045C057FD2DC00FEF1FEF2FE74E
:100EEA0030E004C035952795179507954A95D2F7AE
:100EFA004801590186229722A822B92289288A28DC
:100F0A008B2871F197FF07C0DC01CB01800F911F7D
:100F1A00A21FB31F02C0DC01CB01009510952095DA
:100F2A00309580239123A223B323482F392F2A2FC8
:100F3A005B2F1AC097FF0FC08B019C01000F111F76
:100F4A00221F331F012B022B032B51F040E030E00C
:100F5A0020E85FEB09C040E030E020E050E004C048
:100F6A00462F372F282F592F642F732F822F952F13
:100F7A001F910F91FF90EF90DF90CF90BF90AF90AD
:060F8A009F908F90089576
:100F90001F920F920FB60F9211242F933F934F93EE
:100FA0005F936F937F938F939F93AF93BF93EF93D1
:100FB000FF93CF93DF93CDB7DEB76597DEBFCDBF8D
:100FC0000E94B40E8A3031F090917600933110F483
:100FD0008D3059F5E0917600F0E0EE59FF4F108228
:100FE000109276002EEE30E040E085E1F901DE015E
:100FF0001196742F0E94340E41E062E0CE010196FA
:101000000E941A0E41E063E0CE0101960E941A0E82
:1010100041E064E0CE0101960E941A0E41E062E0D8
:1010200082E690E00E941A0E0AC0E091760091E0FC
:101030009E0F90937600F0E0EE59FF4F8083659607
:101040000FB6F894DEBF0FBECDBFDF91CF91FF91F9
:10105000EF91BF91AF919F918F917F916F915F9130
:101060004F913F912F910F900FBE0F901F901895A9
:1010700010C00E94830E58F00E947C0E40F029F4AC
:101080005F3F29F00C949F0E51110C948B0E0C9421
:10109000C00E0E94B20C68F39923B1F3552391F36B
:1010A000951B550BBB27AA2762177307840738F0D7
:1010B0009F5F5F4F220F331F441FAA1FA9F335D034
:1010C0000E2E3AF0E0E832D091505040E695001CE8
:1010D000CAF72BD0FE2F29D0660F771F881FBB1FA2
:1010E000261737074807AB07B0E809F0BB0B802D80
:1010F000BF01FF2793585F4F3AF09E3F510578F0AC
:101100000C949F0E0C948B0E5F3FE4F3983ED4F347
:10111000869577956795B795F7959F5FC9F7880F7F
:10112000911D9695879597F90895E1E0660F771FD1
:10113000881FBB1F621773078407BA0720F0621B62
:0E114000730B840BBA0BEE1F88F7E095089531
:10114E00CF92DF92EF92FF920F931F93CF93DF9385
:10115E00FC01EB018A01009721F480E38883198258
:10116E0050C0992354F44A30510551F4F195E1954C
:10117E00F109CC24C394D12C05C0C12CD12C02C0B2
:10118E00C12CD12C20E030E018C0CF01B8010E9454
:10119E00A00D79014FEFE41AF40ADE01A20FB31F7E
:1011AE008A30910514F0895C01C0805D8C93CF016B
:1011BE00B8010E94A00DFB019701309731F7CD28A1
:1011CE0039F0FE01E20FF31F8DE280832F5F3F4F58
:1011DE00FE01E20FF31F1082C901019720E030E0FB
:1011EE000DC0DE01A20FB31F4C91FE01E80FF91FD7
:1011FE0050815C9340832F5F3F4F0197281739072B
:10120E0084F3DF91CF911F910F91FF90EF90DF90BC
:04121E00CF900895D0
:101222000FC00E947C0E38F00E94830E20F095239E
:1012320011F00C949F0E0C94C00E11240C948B0E82
:101242000E94B20C70F3959FC1F3950F50E0551FA9
:10125200629FF001729FBB27F00DB11D639FAA2709
:10126200F00DB11DAA1F649F6627B00DA11D661F58
:10127200829F2227B00DA11D621F739FB00DA11D79
:10128200621F839FA00D611D221F749F3327A00D33
:10129200611D231F849F600D211D822F762F6A2FCF
:1012A20011249F5750409AF0F1F088234AF0EE0F34
:1012B200FF1FBB1F661F771F881F91505040A9F761
:1012C2009E3F510580F00C949F0E0C948B0E5F3F55
:1012D200E4F3983ED4F3869577956795B795F7959D
:1012E200E7959F5FC1F7FE2B880F911D9695879515
:0412F20097F90895CB
:1012F60011C00E947C0E38F00E94830E20F039F453
:101306009F3F19F426F40C94C00E0EF4E095E7FB0B
:101316000C949F0EE92F0E94B20C58F3BA1762077D
:1013260073078407950720F079F4A6F50C948A0EC6
:101336000EF4E0950B2EBA2FA02D0B01B9019001EA
:101346000C01CA01A0011124FF27591B99F0593F2E
:1013560050F4503E68F11A16F040A22F232F342F76
:101366004427585FF3CF469537952795A795F040C4
:101376005395C9F77EF41F16BA0B620B730B840BD9
:10138600BAF09150A1F0FF0FBB1F661F771F881F91
:10139600C2F70EC0BA0F621F731F841F48F48795E9
:1013A60077956795B795F7959E3F08F0B0CF9395DB
:0E13B600880F08F09927EE0F979587950895F8
:1013C4006F927F928F92EF92FF920F931F93CF931E
:1013D400DF93CDB7DEB761970FB6F894DEBF0FBECB
:1013E400CDBFFE01319651E1DF011D925A95E9F717
:1013F400A2E0B1E0BA83A9839C838B8377FF09C001
:101404008FE490E090936100809360008FEF9FEFF2
:1014140019C03901842E7C01615071097F836E8368
:101424009801682DA301CF010E944A0D4885598572
:101434002E813F814217530708F49A01F701E20F06
:10144400F31F108261960FB6F894DEBF0FBECDBFB6
:10145400DF91CF911F910F91FF90EF908F907F902C
:041464006F900895E8
:10146800CF92DF92EF92DC0190E0292F30E0220F3B
:10147800331F6901032E000CEE086E2DA601485299
:101488005F4F6F4F6A01E62EFA018491E7FC808175
:1014980081110DC02F5F3F4F032E000C440B2852C3
:1014A8003F4F4F4FF901849147FD808124C0CD9073
:1014B800DD90EC901297F6014491E7FC408184138B
:1014C80015C02F5F3F4F032E000C440B28523F4F8F
:1014D8004F4FF901949147FD90815FEFC51AD50AE6
:1014E800E50ACD92DD92EC92129701C09F5F9B3086
:0E14F80008F4BBCF892FEF90DF90CF900895BE
:1015060081B3816081BB81B3826081BB82B38E7FF0
:1015160082BB82B38D7F82BB8FE084BB85B3807F25
:1015260085BB87E893E10197F1F700C0000082E0F0
:101536000E94780D81EE94E00197F1F700C000005B
:1015460088E20E94780D81EE94E00197F1F700C0E1
:1015560000008CE00E94780D89EF90E00197F1F78A
:1015660000C0000081E00E94780D83EF91E00197B2
:10157600F1F700C0000086E00E94780D89EF90E048
:101586000197F1F700C0000080E80E94780D89EF0E
:0C15960090E00197F1F700C000000895FC
:1015A2000F931F93CF93DF93DB01109719F48FEF03
:1015B2009FEF3DC02D913C91119730FF25C01796AA
:1015C2004D915C91189715962D913C911697421763
:1015D200530778F41296ED91FC911397808312963B
:1015E2002D913C9113972F5F3F4F13963C932E936F
:1015F200129717962D913C9118972F5F3F4F18968F
:101602003C932E93179713C01D96ED91FC911E9754
:10161200309769F2EB01092F182F0995892B39F6BA
:101622008F819885019698878F83812F902FDF91E4
:08163200CF911F910F91089563
:10163A006F927F928F92AF92BF92CF92DF92EF9288
:10164A00FF920F931F93CF93DF935C013A01862E8B
:10165A00E901670181E0C822DD24E0FC03C020170C
:10166A00310758F09E01682DA301C5010E942B0C79
:10167A00C017D10710F0CE0118C07801EC1AFD0A84
:10168A00E114F10449F0B50180E290E00E94D10A28
:10169A0081E0E81AF108F4CFCD2831F49E01682DD3
:1016AA00A301C5010E942B0CC801DF91CF911F91A4
:1016BA000F91FF90EF90DF90CF90BF90AF908F90F7
:0616CA007F906F9008956F
:1016D000A3E8B0E0EEE6FBE00C94190D5C014901D3
:1016E000CF57DF4F488359836A83C158D040C12CFC
:1016F000D12CCF57DF4F2881C158D040CE57DF4F74
:101700009881C258D040CD57DF4F8881C358D04010
:10171000E22FF92F949187FD90819923E9F07401CC
:10172000860120E830E0AE014F5F5F4FBE016F578A
:101730007F4FC5010E9439048C0D9D1D8C159D05A0
:101740004CF48FE490E090936100809360008FEF01
:101750009FEF03C06C01CDCFC601CD57DF4FECE04A
:041760000C94350DA3
:10176400E89409C097FB3EF4909580957095619537
:101774007F4F8F4F9F4F9923A9F0F92F96E9BB27ED
:101784009395F695879577956795B795F111F8CF69
:10179400FAF4BB0F11F460FF1BC06F5F7F4F8F4FD4
:1017A4009F4F16C0882311F096E911C0772321F0CA
:1017B4009EE8872F762F05C0662371F096E8862F62
:1017C40070E060E02AF09A95660F771F881FDAF7B9
:0A17D400880F9695879597F9089500
:1017DE00DC012D913D914C911297F901849147FDB9
:1017EE0080818A3221F080E090E07AE011C02F5F94
:1017FE003F4F4F4F2D933D934C93DB01ED91FC9159
:10180E001197CF0102968D939C93808191810895BB
:10181E002D913D914C911297F901549147FD5081B4
:10182E0050535A3080F4789FF001799FF00D1124B7
:10183E00CF01850F911D2F5F3F4F4F4F2D933D933E
:08184E004C931297E5CF0895B9
:101856006F927F928F92CF92DF92EF920F931F93A8
:10186600CF93DF938C016A01E62EE9013A01862EB9
:10187600620E731E811C37FD8A94C614D704E804D1
:1018860079F0F6018491E7FC8081B801082E000CFE
:10189600990B0E94D10A8FEFC81AD80AE80AEDCF31
:1018A600CE01DF91CF911F910F91EF90DF90CF90F6
:0818B6008F907F906F90089560
:1018BE000E94BA0C88F09F5798F0B92F9927B7510C
:1018CE00B0F0E1F0660F771F881F991F1AF0BA95D6
:1018DE00C9F714C0B13091F00E948A0EB1E008959C
:1018EE000C948A0E672F782F8827B85F39F0B93F8E
:1018FE00CCF3869577956795B395D9F73EF4909589
:0E190E008095709561957F4F8F4F9F4F089584
:10191C00990F0008550FAA0BE0E8FEEF16161706F4
:10192C00E807F907C0F012161306E407F50798F05C
:10193C00621B730B840B950B39F40A2661F0232B75
:10194C00242B252B21F408950A2609F4A140A695F1
:08195C008FEF811D811D08952C
:1019640057FD9058440F551F59F05F3F71F047954C
:10197400880F97FB991F61F09F3F79F08795089531
:10198400121613061406551FF2CF4695F1DF08C050
:10199400161617061806991FF1CF8695710561056D
:0419A4000894089506
:1019A800FA0160387105CCF0623871051CF06338B3
:1019B800710599F4A081B1819D012C5F3F4F31835E
:1019C80020834D915D916D917C91FC014083518301
:1019D8006283738381E090E0089580E090E0089549
:1019E800823071F018F4813031F00895833069F055
:1019F800843081F008958FE7860F0E94780D08954E
:101A08008FEB860F0E94780D089583E9860F0E9458
:0E1A1800780D089583ED860F0E94780D0895D5
:101A26002F923F924F925F926F927F928F929F92E8
:101A3600AF92BF92CF92DF92EF92FF920F931F93D6
:101A4600CF93DF93CDB7DEB7CA1BDB0B0FB6F89487
:081A5600DEBF0FBECDBF0994F5
:101A5E002A88398848885F846E847D848C849B8430
:101A6E00AA84B984C884DF80EE80FD800C811B813E
:101A7E00AA81B981CE0FD11D0FB6F894DEBF0FBE6D
:061A8E00CDBFED0108953B
:101A9400A2E0B0E0E0E5FDE00C94210D8C013A8376
:101AA40029839E012F5F3F4F0E94680BF80120811C
:101AB40024FF02C08FEF9FEF2296E4E00C943D0DCB
:101AC400CF92DF92EF926B01E82EA82FCB01FC019D
:101AD4002491A7FD2081222319F00196A11DF7CF9F
:0C1AE4008C199D09EF90DF90CF900895C1
:101AF000CF93C82F82B38E7F82BB8C2F82958F703D
:101B00000E946C0E0E94C80D8C2F8F700E946C0E6C
:081B10000E94C80DCF91089559
:101B1800CF93C82F82B3816082BB8C2F82958F7040
:101B28000E946C0E0E94C80D8C2F8F700E946C0E44
:081B38000E94C80DCF91089531
:101B400097FB072E16F4009407D077FD09D00E946A
:101B5000B40D07FC05D03EF4909581959F4F0895F4
:081B6000709561957F4F089517
:101B6800AA1BBB1B51E107C0AA1FBB1FA617B707BB
:101B780010F0A61BB70B881F991F5A95A9F78095D7
:081B88009095BC01CD01089508
:101B900082B3826082BB81EE94E00197F1F700C0CE
:101BA000000082B38D7F82BB81EE94E00197F1F754
:061BB00000C000000895D2
:101BB600A0E0B0E0E1EEFDE00C94230D9E01265F6F
:101BC6003F4F4F81588569858D819E810E94410EC8
:061BD600E2E00C943F0D5B
:101BDC00092E0394000C11F4882352F0BB0F40F42F
:101BEC00BF2B11F460FF04C06F5F7F4F8F4F9F4F6F
:021BFC0008954A
:101BFE009A01462FDC01F901549147FD50815D9306
:0C1C0E002F5F3F4F4F4F5111F6CF08954C
:101C1A00CF93DF93EC0103C021960E948C0D88813B
:0A1C2A008111FACFDF91CF910895E8
:101C3400CF93DF93EC01862F642F0E94F40CCE0126
:0A1C44000E940D0EDF91CF9108956C
:101C4E0097B1907F8F70892B87B986B1806486B9E2
:0A1C5E003699FECF84B195B10895C8
:101C6800992777FD05C005900D920197E1F7089532
:0A1C780001900D920197E1F7089525
:101C82000F931F9389019A01462F6FEF7FE70E94FE
:081C9200E2091F910F91089572
:101C9A00CF93C82F862F642F0E94F40C8C2F0E949A
:061CAA008C0DCF9108959E
:101CB000EC010E94C80E0E94C70ECE010E94C90E00
:061CC000CE010E94C50EDA
:101CC600FC01480F591FE417F50711F06193FBCF8C
:021CD60008956F
:101CD80095B3907F95BB95B38F70982B95BB08955E
:101CE8009C01215431092A31310508F48062089594
:0E1CF80000240A941616170618060906089509
:0E1D060000240A94121613061406050608950A
:0E1D1400E894BB2766277727CB0197F908953F
:0E1D22005058BB27AA270E947B090C94EE0D97
:0E1D30000E945F0C6894B1110C948B0E089504
:0C1D3E0097F99F6780E870E060E008956E
:0A1D4A0080E487B987E886B90895A0
:0A1D54000E948E0C08F481E008954F
:0A1D5E000E948E0C08F48FEF089528
:081D68005F9BFECF8CB10895D2
:081D70000E9438080C94EE0DEE
:081D78000E9411090C94EE0D0C
:061D80009FEF80EC0895C6
:041D86000C940000B9
:041D8A000E9455005E
:021D8E000895B6
:021D90000895B4
:021D92000895B2
:00000001FF
