:100000000C942A000C943F000C943F000C943F0089
:100010000C943F000C943F000C943F000C943F0064
:100020000C943F000C943F000C943F000C943F0054
:100030000C943F000C943F000C943F000C943F0044
:100040000C943F000C943F000C943F000C943F0034
:100050000C943F0011241FBECFE5D8E0DEBFCDBF1A
:1000600010E0A0E6B0E0EAE4F5E002C005900D92F1
:10007000A83AB107D9F70E9441000C94A3020C944E
:1000800000000F931F93CF93DF9380E690E00E94D0
:1000900079010E94740000E0C0E5D3EC01C000E0EB
:1000A00080E690E00E94F901182F8823C1F3282FE1
:1000B00030E0802F992787FD90952817390781F325
:1000C000812F0E94A600012FCE010197F1F7E8CF02
:1000D000C0988BBBC19A82EE94E0FC013197F1F796
:1000E000C1980197F1F708950F931F93B89AB99AA1
:1000F000C098C1988FEF8ABB1BBA88E893E101973B
:10010000F1F788E30E94680082EE94E00197F1F72E
:100110008CE00E9468000AEF10E0C8010197F1F737
:1001200081E00E94680084EF91E00197F1F786E09A
:100130000E946800C8010197F1F780E80E946800FA
:10014000C8010197F1F71F910F910895C09A8BBBD9
:10015000C19A82EE94E0FC013197F1F7C1980197C2
:10016000F1F70895823069F0833018F48130A9F4F2
:1001700005C0833049F0843081F40BC0862F81584C
:1001800005C0862F815402C0862F8D560E946800BC
:100190000895862F8D520E94680008951F93182F8E
:1001A000862F642F0E94B200812F0E94A6001F910B
:1001B0000895CF93DF93EC0103C021960E94A6001F
:1001C00088818823D1F7DF91CF9108950F931F93F2
:1001D0008C01862F642F0E94B200C8010E94D900B2
:1001E0001F910F910895AF92BF92CF92DF92EF923D
:1001F000FF921F93CF93DF936B017C015A0161152E
:1002000071058105910529F480E3FA01808311824B
:1002100039C0C0E0D0E0C701B6012AE030E040E0DC
:1002200050E00E948102162FC701B6012AE030E09B
:1002300040E050E00E948102C901DA016C017D01B9
:10024000F501EC0FFD1F105D10832196C114D10440
:10025000E104F10401F7F501EC0FFD1F1082AE017E
:1002600041505040D50120E030E008C09C91808191
:100270008D9390832F5F3F4F41505040319724170B
:100280003507A4F3DF91CF911F91FF90EF90DF909E
:10029000CF90BF90AF900895DF92EF92FF920F93AF
:1002A0001F93CF93DF937C01062FD42E122F28307B
:1002B000C0F4822F880F880F880F805C0E9468002E
:1002C000C0E0D0E0F701EC0FFD1F80810E94A60086
:1002D0002196C830D105B1F7812F602F4D2D0E9496
:1002E000CE00DF91CF911F910F91FF90EF90DF90A3
:1002F0000895DC01ED91FC911197EE0FFF1FE85777
:10030000FF4F0190F081E02D41E050E09A011296FC
:100310000C90129702C0220F331F0A94E2F78081DB
:10032000822B80831496ED91FC911597EE0FFF1FA1
:10033000E857FF4F0190F081E02D9A0116960C903E
:10034000169702C0220F331F0A94E2F78081822B96
:1003500080831896ED91FC911997EE0FFF1FE857D7
:10036000FF4F0190F081E02D9A011A960C901A9798
:1003700002C0220F331F0A94E2F78081822B808310
:100380001C96ED91FC911D97EE0FFF1FE857FF4F54
:100390000190F081E02D1E960C901E9702C0440F34
:1003A000551F0A94E2F78081842B808340E050E05F
:1003B00061E070E05096ED91FC915197EE0FFF1FB8
:1003C000E857FF4F0190F081E02DCB0152960C9041
:1003D000529702C0880F991F0A94E2F780952081F6
:1003E000282320834F5F5F4F14964430510511F747
:1003F0000895CF92DF92EF92FF920F931F93CF93C6
:10040000DF938C01BC01C0E0D0E031E0E32EF12CA1
:100410006AC04C175D07B9F4DB01ED91FC911197AF
:10042000EE0FFF1FE058FF4F0190F081E02D970184
:1004300012960C9002C0220F331F0A94E2F78081BB
:10044000822B808317C0D601ED91FC911197EE0F9E
:10045000FF1FE058FF4F0190F081E02DC701129679
:100460000C9002C0880F991F0A94E2F780952081B2
:10047000282320834F5F5F4F84E090E0C80ED91E91
:100480004430510531F6D80120E030E05096ED912E
:10049000FC915197EE0FFF1FE057FF4F0190F08145
:1004A000E02D808190E052960C90529702C0959575
:1004B00087950A94E2F780FF0AC0CC0FDD1FCC0FAE
:1004C000DD1FC20FD31FC856DF4F888111C02F5FB9
:1004D0003F4F149624303105C9F621966C5F7F4F4B
:1004E000C430D10521F0680140E050E092CF80E0B7
:1004F000DF91CF911F910F91FF90EF90DF90CF9000
:100500000895A1E21A2EAA1BBB1BFD010DC0AA1F54
:10051000BB1FEE1FFF1FA217B307E407F50720F06C
:10052000A21BB30BE40BF50B661F771F881F991FE7
:100530001A9469F760957095809590959B01AC0130
:0A054000BD01CF010895F894FFCF2C
:10054A000200000002000100020002000200030093
:10055A000200040002000500020006000200070073
:10056A003B003800350032003A00370034003100D1
:10057A0039003600330030003738392F3435362AFF
:08058A003132332D23303D2BEB
:00000001FF
